:0100000000FF
:0100010000FE
:0100020000FD
:0100030000FC
:0100040000FB
:0100050000FA
:0100060000F9
:0100070000F8
:0100080000F7
:0100090000F6
:01000A0000F5
:01000B0000F4
:01000C0000F3
:01000D0000F2
:01000E0000F1
:01000F0000F0
:0100100000EF
:0100110000EE
:0100120000ED
:0100130000EC
:0100140000EB
:0100150000EA
:0100160000E9
:0100170000E8
:0100180000E7
:0100190000E6
:01001A0000E5
:01001B0000E4
:01001C0000E3
:01001D0000E2
:01001E0000E1
:01001F0000E0
:0100200000DF
:0100210000DE
:0100220000DD
:0100230000DC
:0100240000DB
:0100250000DA
:0100260000D9
:0100270000D8
:0100280000D7
:0100290000D6
:01002A0000D5
:01002B0000D4
:01002C0000D3
:01002D0000D2
:01002E0000D1
:01002F0000D0
:0100300000CF
:0100310000CE
:0100320000CD
:0100330000CC
:0100340000CB
:0100350000CA
:0100360000C9
:0100370000C8
:0100380000C7
:0100390000C6
:01003A0000C5
:01003B0000C4
:01003C0000C3
:01003D0000C2
:01003E0000C1
:01003F0000C0
:0100400000BF
:0100410000BE
:0100420000BD
:0100430000BC
:0100440000BB
:0100450000BA
:0100460000B9
:0100470000B8
:0100480000B7
:0100490000B6
:01004A0000B5
:01004B0000B4
:01004C0000B3
:01004D0000B2
:01004E0000B1
:01004F0000B0
:0100500000AF
:0100510000AE
:0100520000AD
:0100530000AC
:0100540000AB
:0100550000AA
:0100560000A9
:0100570000A8
:0100580000A7
:0100590000A6
:01005A0000A5
:01005B0000A4
:01005C0000A3
:01005D0000A2
:01005E0000A1
:01005F0000A0
:01006000009F
:01006100009E
:01006200009D
:01006300009C
:01006400009B
:01006500009A
:010066000099
:010067000098
:010068000097
:010069000096
:01006A000095
:01006B000094
:01006C000093
:01006D000092
:01006E000091
:01006F000090
:01007000008F
:01007100008E
:01007200008D
:01007300008C
:01007400008B
:01007500008A
:010076000089
:010077000088
:010078000087
:010079000086
:01007A000085
:01007B000084
:01007C000083
:01007D000082
:01007E000081
:01007F000080
:01008000007F
:01008100007E
:01008200007D
:01008300007C
:01008400007B
:01008500007A
:010086000079
:010087000078
:010088000077
:010089000076
:01008A000075
:01008B000074
:01008C000073
:01008D000072
:01008E000071
:01008F000070
:01009000006F
:01009100006E
:01009200006D
:01009300006C
:01009400006B
:01009500006A
:010096000069
:010097000068
:010098000067
:010099000066
:01009A000065
:01009B000064
:01009C000063
:01009D000062
:01009E000061
:01009F000060
:0100A000005F
:0100A100005E
:0100A200005D
:0100A300005C
:0100A400005B
:0100A500005A
:0100A6000059
:0100A7000058
:0100A8000057
:0100A9000056
:0100AA000055
:0100AB000054
:0100AC000053
:0100AD000052
:0100AE000051
:0100AF000050
:0100B000004F
:0100B100004E
:0100B200004D
:0100B300004C
:0100B400004B
:0100B500004A
:0100B6000049
:0100B7000048
:0100B8000047
:0100B9000046
:0100BA000045
:0100BB000044
:0100BC000043
:0100BD000042
:0100BE000041
:0100BF000040
:0100C000003F
:0100C100003E
:0100C200003D
:0100C300003C
:0100C400003B
:0100C500003A
:0100C6000039
:0100C7000038
:0100C8000037
:0100C9000036
:0100CA000035
:0100CB000034
:0100CC000033
:0100CD000032
:0100CE000031
:0100CF000030
:0100D000002F
:0100D100002E
:0100D200002D
:0100D300002C
:0100D400002B
:0100D500002A
:0100D6000029
:0100D7000028
:0100D8000027
:0100D9000026
:0100DA000025
:0100DB000024
:0100DC000023
:0100DD000022
:0100DE000021
:0100DF000020
:0100E000001F
:0100E100001E
:0100E200001D
:0100E300001C
:0100E400001B
:0100E500001A
:0100E6000019
:0100E7000018
:0100E8000017
:0100E9000016
:0100EA000015
:0100EB000014
:0100EC000013
:0100ED000012
:0100EE000011
:0100EF000010
:0100F000000F
:0100F100000E
:0100F200000D
:0100F300000C
:0100F400000B
:0100F500000A
:0100F6000009
:0100F7000008
:0100F8000007
:0100F9000006
:0100FA000005
:0100FB000004
:0100FC000003
:0100FD000002
:0100FE000001
:0100FF000000
:0101000000FE
:0101010000FD
:0101020000FC
:0101030000FB
:0101040000FA
:0101050000F9
:0101060000F8
:0101070000F7
:0101080000F6
:0101090000F5
:01010A0000F4
:01010B0000F3
:01010C0000F2
:01010D0000F1
:01010E0000F0
:01010F0000EF
:0101100000EE
:0101110000ED
:0101120000EC
:0101130000EB
:0101140000EA
:0101150000E9
:0101160000E8
:0101170000E7
:0101180000E6
:0101190000E5
:01011A0000E4
:01011B0000E3
:01011C0000E2
:01011D0000E1
:01011E0000E0
:01011F0000DF
:0101200000DE
:0101210000DD
:0101220000DC
:0101230000DB
:0101240000DA
:0101250000D9
:0101260000D8
:0101270000D7
:0101280000D6
:0101290000D5
:01012A0000D4
:01012B0000D3
:01012C0000D2
:01012D0000D1
:01012E0000D0
:01012F0000CF
:0101300000CE
:0101310000CD
:0101320000CC
:0101330000CB
:0101340000CA
:0101350000C9
:0101360000C8
:0101370000C7
:0101380000C6
:0101390000C5
:01013A0000C4
:01013B0000C3
:01013C0000C2
:01013D0000C1
:01013E0000C0
:01013F0000BF
:0101400000BE
:0101410000BD
:0101420000BC
:0101430000BB
:0101440000BA
:0101450000B9
:0101460000B8
:0101470000B7
:0101480000B6
:0101490000B5
:01014A0000B4
:01014B0000B3
:01014C0000B2
:01014D0000B1
:01014E0000B0
:01014F0000AF
:0101500000AE
:0101510000AD
:0101520000AC
:0101530000AB
:0101540000AA
:0101550000A9
:0101560000A8
:0101570000A7
:0101580000A6
:0101590000A5
:01015A0000A4
:01015B0000A3
:01015C0000A2
:01015D0000A1
:01015E0000A0
:01015F00009F
:01016000009E
:01016100009D
:01016200009C
:01016300009B
:01016400009A
:010165000099
:010166000098
:010167000097
:010168000096
:010169000095
:01016A000094
:01016B000093
:01016C000092
:01016D000091
:01016E000090
:01016F00008F
:01017000008E
:01017100008D
:01017200008C
:01017300008B
:01017400008A
:010175000089
:010176000088
:010177000087
:010178000086
:010179000085
:01017A000084
:01017B000083
:01017C000082
:01017D000081
:01017E000080
:01017F00007F
:01018000007E
:01018100007D
:01018200007C
:01018300007B
:01018400007A
:010185000079
:010186000078
:010187000077
:010188000076
:010189000075
:01018A000074
:01018B000073
:01018C000072
:01018D000071
:01018E000070
:01018F00006F
:01019000006E
:01019100006D
:01019200006C
:01019300006B
:01019400006A
:010195000069
:010196000068
:010197000067
:010198000066
:010199000065
:01019A000064
:01019B000063
:01019C000062
:01019D000061
:01019E000060
:01019F00005F
:0101A000005E
:0101A100005D
:0101A200005C
:0101A300005B
:0101A400005A
:0101A5000059
:0101A6000058
:0101A7000057
:0101A8000056
:0101A9000055
:0101AA000054
:0101AB000053
:0101AC000052
:0101AD000051
:0101AE000050
:0101AF00004F
:0101B000004E
:0101B100004D
:0101B200004C
:0101B300004B
:0101B400004A
:0101B5000049
:0101B6000048
:0101B7000047
:0101B8000046
:0101B9000045
:0101BA000044
:0101BB000043
:0101BC000042
:0101BD000041
:0101BE000040
:0101BF00003F
:0101C000003E
:0101C100003D
:0101C200003C
:0101C300003B
:0101C400003A
:0101C5000039
:0101C6000038
:0101C7000037
:0101C8000036
:0101C9000035
:0101CA000034
:0101CB000033
:0101CC000032
:0101CD000031
:0101CE000030
:0101CF00002F
:0101D000002E
:0101D100002D
:0101D200002C
:0101D300002B
:0101D400002A
:0101D5000029
:0101D6000028
:0101D7000027
:0101D8000026
:0101D9000025
:0101DA000024
:0101DB000023
:0101DC000022
:0101DD000021
:0101DE000020
:0101DF00001F
:0101E000001E
:0101E100001D
:0101E200001C
:0101E300001B
:0101E400001A
:0101E5000019
:0101E6000018
:0101E7000017
:0101E8000016
:0101E9000015
:0101EA000014
:0101EB000013
:0101EC000012
:0101ED000011
:0101EE000010
:0101EF00000F
:0101F000000E
:0101F100000D
:0101F200000C
:0101F300000B
:0101F400000A
:0101F5000009
:0101F6000008
:0101F7000007
:0101F8000006
:0101F9000005
:0101FA000004
:0101FB000003
:0101FC000002
:0101FD000001
:0101FE000000
:0101FF0000FF
:0102000000FD
:0102010000FC
:0102020000FB
:0102030000FA
:0102040000F9
:0102050000F8
:0102060000F7
:0102070000F6
:0102080000F5
:0102090000F4
:01020A0000F3
:01020B0000F2
:01020C0000F1
:01020D0000F0
:01020E0000EF
:01020F0000EE
:0102100000ED
:0102110000EC
:0102120000EB
:0102130000EA
:0102140000E9
:0102150000E8
:0102160000E7
:0102170000E6
:0102180000E5
:0102190000E4
:01021A0000E3
:01021B0000E2
:01021C0000E1
:01021D0000E0
:01021E0000DF
:01021F0000DE
:0102200000DD
:0102210000DC
:0102220000DB
:0102230000DA
:0102240000D9
:0102250000D8
:0102260000D7
:0102270000D6
:0102280000D5
:0102290000D4
:01022A0000D3
:01022B0000D2
:01022C0000D1
:01022D0000D0
:01022E0000CF
:01022F0000CE
:0102300000CD
:0102310000CC
:0102320000CB
:0102330000CA
:0102340000C9
:0102350000C8
:0102360000C7
:0102370000C6
:0102380000C5
:0102390000C4
:01023A0000C3
:01023B0000C2
:01023C0000C1
:01023D0000C0
:01023E0000BF
:01023F0000BE
:0102400000BD
:0102410000BC
:0102420000BB
:0102430000BA
:0102440000B9
:0102450000B8
:0102460000B7
:0102470000B6
:0102480000B5
:0102490000B4
:01024A0000B3
:01024B0000B2
:01024C0000B1
:01024D0000B0
:01024E0000AF
:01024F0000AE
:0102500000AD
:0102510000AC
:0102520000AB
:0102530000AA
:0102540000A9
:0102550000A8
:0102560000A7
:0102570000A6
:0102580000A5
:0102590000A4
:01025A0000A3
:01025B0000A2
:01025C0000A1
:01025D0000A0
:01025E00009F
:01025F00009E
:01026000009D
:01026100009C
:01026200009B
:01026300009A
:010264000099
:010265000098
:010266000097
:010267000096
:010268000095
:010269000094
:01026A000093
:01026B000092
:01026C000091
:01026D000090
:01026E00008F
:01026F00008E
:01027000008D
:01027100008C
:01027200008B
:01027300008A
:010274000089
:010275000088
:010276000087
:010277000086
:010278000085
:010279000084
:01027A000083
:01027B003250
:01027C00631E
:01027D00641C
:01027E00641B
:01027F00641A
:010280006419
:010281006418
:010282006417
:010283006416
:010284006415
:010285006414
:010286003245
:010287000076
:010288000075
:010289000074
:01028A000073
:01028B000072
:01028C000071
:01028D000070
:01028E00006F
:01028F00006E
:01029000006D
:01029100006C
:01029200006B
:01029300006A
:010294000069
:010295000068
:010296000067
:010297000066
:010298000065
:010299003232
:01029A005D06
:01029B005D05
:01029C005D04
:01029D003927
:01029E003926
:01029F003925
:0102A0003924
:0102A1005DFF
:0102A2005DFE
:0102A3005EFC
:0102A4003227
:0102A5000058
:0102A6000057
:0102A7000056
:0102A8000055
:0102A9000054
:0102AA000053
:0102AB000052
:0102AC000051
:0102AD000050
:0102AE00004F
:0102AF00004E
:0102B000004D
:0102B100004C
:0102B200004B
:0102B300004A
:0102B4000049
:0102B5000048
:0102B6000047
:0102B7003214
:0102B8005DE8
:0102B9005DE7
:0102BA005DE6
:0102BB003909
:0102BC003908
:0102BD003907
:0102BE003906
:0102BF005DE1
:0102C0005DE0
:0102C1005EDE
:0102C2003209
:0102C300003A
:0102C4000039
:0102C5000038
:0102C6000037
:0102C7000036
:0102C8000035
:0102C9000034
:0102CA000033
:0102CB000032
:0102CC000031
:0102CD000030
:0102CE00002F
:0102CF00002E
:0102D000002D
:0102D100002C
:0102D200002B
:0102D300002A
:0102D4000029
:0102D50032F6
:0102D6005DCA
:0102D7005DC9
:0102D8005DC8
:0102D90039EB
:0102DA0039EA
:0102DB0039E9
:0102DC0039E8
:0102DD005DC3
:0102DE005DC2
:0102DF005EC0
:0102E00032EB
:0102E100001C
:0102E200001B
:0102E300001A
:0102E4000019
:0102E5000018
:0102E6000017
:0102E7000016
:0102E8000015
:0102E9000014
:0102EA000013
:0102EB000012
:0102EC000011
:0102ED000010
:0102EE00000F
:0102EF00000E
:0102F000000D
:0102F100000C
:0102F200000B
:0102F30032D8
:0102F4005DAC
:0102F5005DAB
:0102F6005DAA
:0102F70039CD
:0102F80039CC
:0102F90039CB
:0102FA0039CA
:0102FB005DA5
:0102FC005DA4
:0102FD005EA2
:0102FE0032CD
:0102FF0000FE
:0103000000FC
:0103010000FB
:0103020000FA
:0103030000F9
:0103040000F8
:0103050000F7
:0103060000F6
:0103070000F5
:0103080000F4
:0103090000F3
:01030A0000F2
:01030B0000F1
:01030C0000F0
:01030D0000EF
:01030E0000EE
:01030F0000ED
:0103100000EC
:0103110032B9
:010312005D8D
:010313005D8C
:010314005D8B
:0103150039AE
:0103160039AD
:0103170039AC
:0103180039AB
:010319005D86
:01031A005D85
:01031B005E83
:01031C0032AE
:01031D0000DF
:01031E0000DE
:01031F0000DD
:0103200000DC
:0103210000DB
:0103220000DA
:0103230000D9
:0103240000D8
:0103250000D7
:0103260000D6
:0103270000D5
:0103280000D4
:0103290000D3
:01032A0000D2
:01032B0000D1
:01032C0000D0
:01032D0000CF
:01032E0000CE
:01032F0000CD
:0103300000CC
:0103310000CB
:0103320000CA
:0103330000C9
:0103340000C8
:0103350000C7
:0103360000C6
:0103370000C5
:0103380000C4
:0103390000C3
:01033A0000C2
:01033B0000C1
:01033C0000C0
:01033D0000BF
:01033E0000BE
:01033F0000BD
:0103400000BC
:0103410000BB
:0103420000BA
:0103430000B9
:0103440000B8
:0103450000B7
:0103460000B6
:0103470000B5
:0103480000B4
:0103490000B3
:01034A0000B2
:01034B0000B1
:01034C0000B0
:01034D0000AF
:01034E0000AE
:01034F0000AD
:0103500000AC
:0103510000AB
:0103520000AA
:0103530000A9
:0103540000A8
:0103550000A7
:0103560000A6
:0103570000A5
:0103580000A4
:0103590000A3
:01035A0000A2
:01035B0000A1
:01035C0000A0
:01035D00009F
:01035E00009E
:01035F00009D
:01036000009C
:01036100009B
:01036200009A
:010363000099
:010364000098
:010365000097
:010366000096
:010367000095
:010368000094
:010369000093
:01036A000092
:01036B000091
:01036C000090
:01036D00008F
:01036E00008E
:01036F00008D
:01037000008C
:01037100008B
:01037200008A
:010373000089
:010374000088
:010375000087
:010376000086
:010377000085
:010378000084
:010379000083
:01037A000082
:01037B000081
:01037C000080
:01037D00007F
:01037E00007E
:01037F00007D
:01038000007C
:01038100007B
:01038200007A
:010383000079
:010384000078
:010385000077
:010386000076
:010387000075
:010388000074
:010389000073
:01038A000072
:01038B000071
:01038C000070
:01038D00006F
:01038E00006E
:01038F00006D
:01039000006C
:01039100006B
:01039200006A
:010393000069
:010394000068
:010395000067
:010396000066
:010397000065
:010398000064
:010399000063
:01039A000062
:01039B000061
:01039C000060
:01039D00005F
:01039E00005E
:01039F00005D
:0103A000005C
:0103A100005B
:0103A200005A
:0103A3000059
:0103A4000058
:0103A5000057
:0103A6000056
:0103A7003223
:0103A8003F15
:0103A9001B38
:0103AA001B37
:0103AB001C35
:0103AC001B35
:0103AD001B34
:0103AE001B33
:0103AF001B32
:0103B0001B31
:0103B100400B
:0103B20056F4
:0103B3000049
:0103B4000048
:0103B5000047
:0103B6000046
:0103B7000045
:0103B8000044
:0103B9000043
:0103BA000042
:0103BB000041
:0103BC000040
:0103BD00003F
:0103BE00003E
:0103BF00003D
:0103C000003C
:0103C100003B
:0103C200003A
:0103C3000039
:0103C4000038
:0103C5003205
:0103C6000036
:0103C7000035
:0103C8000034
:0103C9000033
:0103CA000032
:0103CB000031
:0103CC000030
:0103CD00002F
:0103CE00002E
:0103CF00002D
:0103D00056D6
:0103D100002B
:0103D200002A
:0103D3000029
:0103D4000028
:0103D5000027
:0103D6000026
:0103D7000025
:0103D8000024
:0103D9000023
:0103DA000022
:0103DB000021
:0103DC000020
:0103DD00001F
:0103DE00001E
:0103DF00001D
:0103E000001C
:0103E100001B
:0103E200001A
:0103E30032E7
:0103E4000018
:0103E5000017
:0103E6000016
:0103E7000015
:0103E8000014
:0103E9000013
:0103EA000012
:0103EB000011
:0103EC000010
:0103ED00000F
:0103EE0056B8
:0103EF00000D
:0103F000000C
:0103F100000B
:0103F200000A
:0103F3000009
:0103F4000008
:0103F5000007
:0103F6000006
:0103F7000005
:0103F8000004
:0103F9000003
:0103FA000002
:0103FB000001
:0103FC000000
:0103FD0000FF
:0103FE0000FE
:0103FF0000FD
:0104000000FB
:0104010032C8
:0104020000F9
:0104030000F8
:0104040000F7
:0104050000F6
:0104060000F5
:0104070000F4
:0104080000F3
:0104090000F2
:01040A0000F1
:01040B0000F0
:01040C005699
:01040D0000EE
:01040E0000ED
:01040F0000EC
:0104100000EB
:0104110000EA
:0104120000E9
:0104130000E8
:0104140000E7
:0104150000E6
:0104160000E5
:0104170000E4
:0104180000E3
:0104190000E2
:01041A0000E1
:01041B0000E0
:01041C0000DF
:01041D0000DE
:01041E0000DD
:01041F0032AA
:0104200000DB
:0104210000DA
:0104220000D9
:0104230000D8
:0104240000D7
:0104250000D6
:0104260000D5
:0104270000D4
:0104280000D3
:0104290000D2
:01042A00567B
:01042B0000D0
:01042C0000CF
:01042D0000CE
:01042E0000CD
:01042F0000CC
:0104300000CB
:0104310000CA
:0104320000C9
:0104330000C8
:0104340000C7
:0104350000C6
:0104360000C5
:0104370000C4
:0104380000C3
:0104390000C2
:01043A0000C1
:01043B0000C0
:01043C0000BF
:01043D00328C
:01043E0000BD
:01043F0000BC
:0104400000BB
:0104410000BA
:0104420000B9
:0104430000B8
:0104440000B7
:0104450000B6
:0104460000B5
:0104470000B4
:01044800565D
:0104490000B2
:01044A0000B1
:01044B0000B0
:01044C0000AF
:01044D0000AE
:01044E0000AD
:01044F0000AC
:0104500000AB
:0104510000AA
:0104520000A9
:0104530000A8
:0104540000A7
:0104550000A6
:0104560000A5
:0104570000A4
:0104580000A3
:0104590000A2
:01045A0000A1
:01045B0000A0
:01045C00009F
:01045D00009E
:01045E00009D
:01045F00009C
:01046000009B
:01046100009A
:010462000099
:010463000098
:010464000097
:010465000096
:010466000095
:010467000094
:010468000093
:010469000092
:01046A000091
:01046B000090
:01046C00008F
:01046D00008E
:01046E00008D
:01046F00008C
:01047000008B
:01047100008A
:010472000089
:010473000088
:010474000087
:010475000086
:010476000085
:010477000084
:010478000083
:010479000082
:01047A000081
:01047B000080
:01047C00007F
:01047D00007E
:01047E00007D
:01047F00007C
:01048000007B
:01048100007A
:010482000079
:010483000078
:010484000077
:010485000076
:010486000075
:010487000074
:010488000073
:010489000072
:01048A000071
:01048B000070
:01048C00006F
:01048D00006E
:01048E00006D
:01048F00006C
:01049000006B
:01049100006A
:010492000069
:010493000068
:010494000067
:010495000066
:010496000065
:010497000064
:010498000063
:010499000062
:01049A000061
:01049B000060
:01049C00005F
:01049D00005E
:01049E00005D
:01049F00005C
:0104A000005B
:0104A100005A
:0104A2000059
:0104A3000058
:0104A4000057
:0104A5000056
:0104A6000055
:0104A7000054
:0104A8000053
:0104A9000052
:0104AA000051
:0104AB000050
:0104AC00004F
:0104AD00004E
:0104AE00004D
:0104AF00004C
:0104B000004B
:0104B100004A
:0104B2000049
:0104B3000048
:0104B4000047
:0104B5000046
:0104B6000045
:0104B7000044
:0104B8000043
:0104B9000042
:0104BA000041
:0104BB000040
:0104BC00003F
:0104BD00003E
:0104BE00003D
:0104BF00003C
:0104C000003B
:0104C100003A
:0104C2000039
:0104C3000038
:0104C4000037
:0104C5000036
:0104C6000035
:0104C7000034
:0104C8000033
:0104C9000032
:0104CA000031
:0104CB000030
:0104CC00002F
:0104CD00002E
:0104CE00002D
:0104CF00002C
:0104D000002B
:0104D100002A
:0104D2000029
:0104D30032F6
:0104D4001B0C
:0104D5001C0A
:0104D6001B0A
:0104D7001B09
:0104D8001B08
:0104D9001B07
:0104DA001B06
:0104DB001B05
:0104DC001B04
:0104DD003FDF
:0104DE0056C7
:0104DF00001C
:0104E000001B
:0104E100001A
:0104E2000019
:0104E3000018
:0104E4000017
:0104E5000016
:0104E6000015
:0104E7000014
:0104E8000013
:0104E9000012
:0104EA000011
:0104EB000010
:0104EC00000F
:0104ED00000E
:0104EE00000D
:0104EF00000C
:0104F000000B
:0104F10032D8
:0104F2000009
:0104F3000008
:0104F4000007
:0104F5000006
:0104F6000005
:0104F7000004
:0104F8000003
:0104F9000002
:0104FA000001
:0104FB000000
:0104FC002BD4
:0104FD0000FE
:0104FE0000FD
:0104FF0000FC
:0105000000FA
:0105010000F9
:0105020000F8
:0105030000F7
:0105040000F6
:0105050000F5
:0105060000F4
:0105070000F3
:0105080000F2
:0105090000F1
:01050A0000F0
:01050B0000EF
:01050C0000EE
:01050D0000ED
:01050E0000EC
:01050F0032B9
:0105100000EA
:0105110000E9
:0105120000E8
:0105130000E7
:0105140000E6
:0105150000E5
:0105160000E4
:0105170000E3
:0105180000E2
:0105190000E1
:01051A002BB5
:01051B0000DF
:01051C0000DE
:01051D0000DD
:01051E0000DC
:01051F0000DB
:0105200000DA
:0105210000D9
:0105220000D8
:0105230000D7
:0105240000D6
:0105250000D5
:0105260000D4
:0105270000D3
:0105280000D2
:0105290000D1
:01052A0000D0
:01052B0000CF
:01052C0000CE
:01052D00329B
:01052E0000CC
:01052F0000CB
:0105300000CA
:0105310000C9
:0105320000C8
:0105330000C7
:0105340000C6
:0105350000C5
:0105360000C4
:0105370000C3
:010538002B97
:0105390000C1
:01053A0000C0
:01053B0000BF
:01053C0000BE
:01053D0000BD
:01053E0000BC
:01053F0000BB
:0105400000BA
:0105410000B9
:0105420000B8
:0105430000B7
:0105440000B6
:0105450000B5
:0105460000B4
:0105470000B3
:0105480000B2
:0105490000B1
:01054A0000B0
:01054B00327D
:01054C0000AE
:01054D0000AD
:01054E0000AC
:01054F0000AB
:0105500000AA
:0105510000A9
:0105520000A8
:0105530000A7
:0105540000A6
:0105550000A5
:010556002B79
:0105570000A3
:0105580000A2
:0105590000A1
:01055A0000A0
:01055B00009F
:01055C00009E
:01055D00009D
:01055E00009C
:01055F00009B
:01056000009A
:010561000099
:010562000098
:010563000097
:010564000096
:010565000095
:010566000094
:010567000093
:010568000092
:01056900325F
:01056A000090
:01056B00008F
:01056C00008E
:01056D00008D
:01056E00008C
:01056F00008B
:01057000008A
:010571000089
:010572000088
:010573000087
:010574002B5B
:010575000085
:010576000084
:010577000083
:010578000082
:010579000081
:01057A000080
:01057B00007F
:01057C00007E
:01057D00007D
:01057E00007C
:01057F00007B
:01058000007A
:010581000079
:010582000078
:010583000077
:010584000076
:010585000075
:010586000074
:010587000073
:010588000072
:010589000071
:01058A000070
:01058B00006F
:01058C00006E
:01058D00006D
:01058E00006C
:01058F00006B
:01059000006A
:010591000069
:010592000068
:010593000067
:010594000066
:010595000065
:010596000064
:010597000063
:010598000062
:010599000061
:01059A000060
:01059B00005F
:01059C00005E
:01059D00005D
:01059E00005C
:01059F00005B
:0105A000005A
:0105A1000059
:0105A2000058
:0105A3000057
:0105A4000056
:0105A5000055
:0105A6000054
:0105A7000053
:0105A8000052
:0105A9000051
:0105AA000050
:0105AB00004F
:0105AC00004E
:0105AD00004D
:0105AE00004C
:0105AF00004B
:0105B000004A
:0105B1000049
:0105B2000048
:0105B3000047
:0105B4000046
:0105B5000045
:0105B6000044
:0105B7000043
:0105B8000042
:0105B9000041
:0105BA000040
:0105BB00003F
:0105BC00003E
:0105BD00003D
:0105BE00003C
:0105BF00003B
:0105C000003A
:0105C1000039
:0105C2000038
:0105C3000037
:0105C4000036
:0105C5000035
:0105C6000034
:0105C7000033
:0105C8000032
:0105C9000031
:0105CA000030
:0105CB00002F
:0105CC00002E
:0105CD00002D
:0105CE00002C
:0105CF00002B
:0105D000002A
:0105D1000029
:0105D2000028
:0105D3000027
:0105D4000026
:0105D5000025
:0105D6000024
:0105D7000023
:0105D8000022
:0105D9000021
:0105DA000020
:0105DB00001F
:0105DC00001E
:0105DD00001D
:0105DE00001C
:0105DF00001B
:0105E000001A
:0105E1000019
:0105E2000018
:0105E3000017
:0105E4000016
:0105E5000015
:0105E6000014
:0105E7000013
:0105E8000012
:0105E9000011
:0105EA000010
:0105EB00000F
:0105EC00000E
:0105ED00000D
:0105EE00000C
:0105EF00000B
:0105F000000A
:0105F1000009
:0105F2000008
:0105F3000007
:0105F4000006
:0105F5000005
:0105F6000004
:0105F7000003
:0105F8000002
:0105F9000001
:0105FA000000
:0105FB0000FF
:0105FC0000FE
:0105FD0000FD
:0105FE0000FC
:0105FF0032C9
:0106000040B9
:010601001CDC
:010602001BDC
:010603001BDB
:010604001BDA
:010605001BD9
:010606001BD8
:010607001BD7
:010608001BD6
:0106090040B0
:01060A005699
:01060B0000EE
:01060C0000ED
:01060D0000EC
:01060E0000EB
:01060F0000EA
:0106100000E9
:0106110000E8
:0106120000E7
:0106130000E6
:0106140000E5
:0106150000E4
:0106160000E3
:0106170000E2
:0106180000E1
:0106190000E0
:01061A0000DF
:01061B0000DE
:01061C0000DD
:01061D0032AA
:01061E0000DB
:01061F0000DA
:0106200000D9
:0106210000D8
:0106220000D7
:0106230000D6
:0106240000D5
:0106250000D4
:0106260000D3
:0106270000D2
:010628002BA6
:0106290000D0
:01062A0000CF
:01062B0000CE
:01062C0000CD
:01062D0000CC
:01062E0000CB
:01062F0000CA
:0106300000C9
:0106310000C8
:0106320000C7
:0106330000C6
:0106340000C5
:0106350000C4
:0106360000C3
:0106370000C2
:0106380000C1
:0106390000C0
:01063A0000BF
:01063B00328C
:01063C0000BD
:01063D0000BC
:01063E0000BB
:01063F0000BA
:0106400000B9
:0106410000B8
:0106420000B7
:0106430000B6
:0106440000B5
:0106450000B4
:010646002B88
:0106470000B2
:0106480000B1
:0106490000B0
:01064A0000AF
:01064B0000AE
:01064C0000AD
:01064D0000AC
:01064E0000AB
:01064F0000AA
:0106500000A9
:0106510000A8
:0106520000A7
:0106530000A6
:0106540000A5
:0106550000A4
:0106560000A3
:0106570000A2
:0106580000A1
:01065900326E
:01065A00009F
:01065B00009E
:01065C00009D
:01065D00009C
:01065E00009B
:01065F00009A
:010660000099
:010661000098
:010662000097
:010663000096
:010664002B6A
:010665000094
:010666000093
:010667000092
:010668000091
:010669000090
:01066A00008F
:01066B00008E
:01066C00008D
:01066D00008C
:01066E00008B
:01066F00008A
:010670000089
:010671000088
:010672000087
:010673000086
:010674000085
:010675000084
:010676000083
:010677003250
:010678000081
:010679000080
:01067A00007F
:01067B00007E
:01067C00007D
:01067D00007C
:01067E00007B
:01067F00007A
:010680000079
:010681000078
:010682002B4C
:010683000076
:010684000075
:010685000074
:010686000073
:010687000072
:010688000071
:010689000070
:01068A00006F
:01068B00006E
:01068C00006D
:01068D00006C
:01068E00006B
:01068F00006A
:010690000069
:010691000068
:010692000067
:010693000066
:010694000065
:010695003232
:010696000063
:010697000062
:010698000061
:010699000060
:01069A00005F
:01069B00005E
:01069C00005D
:01069D00005C
:01069E00005B
:01069F00005A
:0106A0002B2E
:0106A1000058
:0106A2000057
:0106A3000056
:0106A4000055
:0106A5000054
:0106A6000053
:0106A7000052
:0106A8000051
:0106A9000050
:0106AA00004F
:0106AB00004E
:0106AC00004D
:0106AD00004C
:0106AE00004B
:0106AF00004A
:0106B0000049
:0106B1000048
:0106B2000047
:0106B3000046
:0106B4000045
:0106B5000044
:0106B6000043
:0106B7000042
:0106B8000041
:0106B9000040
:0106BA00003F
:0106BB00003E
:0106BC00003D
:0106BD00003C
:0106BE00003B
:0106BF00003A
:0106C0000039
:0106C1000038
:0106C2000037
:0106C3000036
:0106C4000035
:0106C5000034
:0106C6000033
:0106C7000032
:0106C8000031
:0106C9000030
:0106CA00002F
:0106CB00002E
:0106CC00002D
:0106CD00002C
:0106CE00002B
:0106CF00002A
:0106D0000029
:0106D1000028
:0106D2000027
:0106D3000026
:0106D4000025
:0106D5000024
:0106D6000023
:0106D7000022
:0106D8000021
:0106D9000020
:0106DA00001F
:0106DB00001E
:0106DC00001D
:0106DD00001C
:0106DE00001B
:0106DF00001A
:0106E0000019
:0106E1000018
:0106E2000017
:0106E3000016
:0106E4000015
:0106E5000014
:0106E6000013
:0106E7000012
:0106E8000011
:0106E9000010
:0106EA00000F
:0106EB00000E
:0106EC00000D
:0106ED00000C
:0106EE00000B
:0106EF00000A
:0106F0000009
:0106F1000008
:0106F2000007
:0106F3000006
:0106F4000005
:0106F5000004
:0106F6000003
:0106F7000002
:0106F8000001
:0106F9000000
:0106FA0000FF
:0106FB0000FE
:0106FC0000FD
:0106FD0000FC
:0106FE0000FB
:0106FF0000FA
:0107000000F8
:0107010000F7
:0107020000F6
:0107030000F5
:0107040000F4
:0107050000F3
:0107060000F2
:0107070000F1
:0107080000F0
:0107090000EF
:01070A0000EE
:01070B0000ED
:01070C0000EC
:01070D0000EB
:01070E0000EA
:01070F0000E9
:0107100000E8
:0107110000E7
:0107120000E6
:0107130000E5
:0107140000E4
:0107150000E3
:0107160000E2
:0107170000E1
:0107180000E0
:0107190000DF
:01071A0000DE
:01071B0000DD
:01071C0000DC
:01071D0000DB
:01071E0000DA
:01071F0000D9
:0107200000D8
:0107210000D7
:0107220000D6
:0107230000D5
:0107240000D4
:0107250000D3
:0107260000D2
:0107270000D1
:0107280000D0
:0107290000CF
:01072A0000CE
:01072B00329B
:01072C001BB1
:01072D001CAF
:01072E001BAF
:01072F001BAE
:010730001BAD
:010731001BAC
:010732001BAB
:010733001BAA
:010734001BA9
:010735004083
:010736003290
:0107370000C1
:0107380000C0
:0107390000BF
:01073A0000BE
:01073B0000BD
:01073C0000BC
:01073D0000BB
:01073E0000BA
:01073F0000B9
:0107400000B8
:0107410000B7
:0107420000B6
:0107430000B5
:0107440000B4
:0107450000B3
:0107460000B2
:0107470000B1
:0107480000B0
:01074900327D
:01074A0000AE
:01074B0000AD
:01074C0000AC
:01074D0000AB
:01074E0000AA
:01074F0000A9
:0107500000A8
:0107510000A7
:0107520000A6
:0107530000A5
:010754002B79
:0107550000A3
:0107560000A2
:0107570000A1
:0107580000A0
:01075900009F
:01075A00009E
:01075B00009D
:01075C00009C
:01075D00009B
:01075E00009A
:01075F000099
:010760000098
:010761000097
:010762000096
:010763000095
:010764000094
:010765000093
:010766000092
:01076700325F
:010768000090
:01076900008F
:01076A00008E
:01076B00008D
:01076C00008C
:01076D00008B
:01076E00008A
:01076F000089
:010770000088
:010771000087
:010772002B5B
:010773000085
:010774000084
:010775000083
:010776000082
:010777000081
:010778000080
:01077900007F
:01077A00007E
:01077B00007D
:01077C00007C
:01077D00007B
:01077E00007A
:01077F000079
:010780000078
:010781000077
:010782000076
:010783000075
:010784000074
:010785003241
:010786000072
:010787000071
:010788000070
:01078900006F
:01078A00006E
:01078B00006D
:01078C00006C
:01078D00006B
:01078E00006A
:01078F000069
:010790002B3D
:010791000067
:010792000066
:010793000065
:010794000064
:010795000063
:010796000062
:010797000061
:010798000060
:01079900005F
:01079A00005E
:01079B00005D
:01079C00005C
:01079D00005B
:01079E00005A
:01079F000059
:0107A0000058
:0107A1000057
:0107A2000056
:0107A3003223
:0107A4000054
:0107A5000053
:0107A6000052
:0107A7000051
:0107A8000050
:0107A900004F
:0107AA00004E
:0107AB00004D
:0107AC00004C
:0107AD00004B
:0107AE002B1F
:0107AF000049
:0107B0000048
:0107B1000047
:0107B2000046
:0107B3000045
:0107B4000044
:0107B5000043
:0107B6000042
:0107B7000041
:0107B8000040
:0107B900003F
:0107BA00003E
:0107BB00003D
:0107BC00003C
:0107BD00003B
:0107BE00003A
:0107BF000039
:0107C0000038
:0107C1003205
:0107C2000036
:0107C3000035
:0107C4000034
:0107C5000033
:0107C6000032
:0107C7000031
:0107C8000030
:0107C900002F
:0107CA00002E
:0107CB00002D
:0107CC002B01
:0107CD00002B
:0107CE00002A
:0107CF000029
:0107D0000028
:0107D1000027
:0107D2000026
:0107D3000025
:0107D4000024
:0107D5000023
:0107D6000022
:0107D7000021
:0107D8000020
:0107D900001F
:0107DA00001E
:0107DB00001D
:0107DC00001C
:0107DD00001B
:0107DE00001A
:0107DF000019
:0107E0000018
:0107E1000017
:0107E2000016
:0107E3000015
:0107E4000014
:0107E5000013
:0107E6000012
:0107E7000011
:0107E8000010
:0107E900000F
:0107EA00000E
:0107EB00000D
:0107EC00000C
:0107ED00000B
:0107EE00000A
:0107EF000009
:0107F0000008
:0107F1000007
:0107F2000006
:0107F3000005
:0107F4000004
:0107F5000003
:0107F6000002
:0107F7000001
:0107F8000000
:0107F90000FF
:0107FA0000FE
:0107FB0000FD
:0107FC0000FC
:0107FD0000FB
:0107FE0000FA
:0107FF0000F9
:0108000000F7
:0108010000F6
:0108020000F5
:0108030000F4
:0108040000F3
:0108050000F2
:0108060000F1
:0108070000F0
:0108080000EF
:0108090000EE
:01080A0000ED
:01080B0000EC
:01080C0000EB
:01080D0000EA
:01080E0000E9
:01080F0000E8
:0108100000E7
:0108110000E6
:0108120000E5
:0108130000E4
:0108140000E3
:0108150000E2
:0108160000E1
:0108170000E0
:0108180000DF
:0108190000DE
:01081A0000DD
:01081B0000DC
:01081C0000DB
:01081D0000DA
:01081E0000D9
:01081F0000D8
:0108200000D7
:0108210000D6
:0108220000D5
:0108230000D4
:0108240000D3
:0108250000D2
:0108260000D1
:0108270000D0
:0108280000CF
:0108290000CE
:01082A0000CD
:01082B0000CC
:01082C0000CB
:01082D0000CA
:01082E0000C9
:01082F0000C8
:0108300000C7
:0108310000C6
:0108320000C5
:0108330000C4
:0108340000C3
:0108350000C2
:0108360000C1
:0108370000C0
:0108380000BF
:0108390000BE
:01083A0000BD
:01083B0000BC
:01083C0000BB
:01083D0000BA
:01083E0000B9
:01083F0000B8
:0108400000B7
:0108410000B6
:0108420000B5
:0108430000B4
:0108440000B3
:0108450000B2
:0108460000B1
:0108470000B0
:0108480000AF
:0108490000AE
:01084A0000AD
:01084B0000AC
:01084C0000AB
:01084D0000AA
:01084E0000A9
:01084F0000A8
:0108500000A7
:0108510000A6
:0108520000A5
:0108530000A4
:0108540000A3
:0108550000A2
:0108560000A1
:01085700326E
:010858001B84
:010859001B83
:01085A001B82
:01085B001B81
:01085C001B80
:01085D001B7F
:01085E001B7E
:01085F001B7D
:010860001B7C
:010861004056
:01086200563F
:010863000094
:010864000093
:010865000092
:010866000091
:010867000090
:01086800008F
:01086900008E
:01086A00008D
:01086B00008C
:01086C00008B
:01086D00008A
:01086E000089
:01086F000088
:010870000087
:010871000086
:010872000085
:010873000084
:010874000083
:010875003250
:010876000081
:010877000080
:01087800007F
:01087900007E
:01087A00007D
:01087B00007C
:01087C00007B
:01087D00007A
:01087E000079
:01087F000078
:010880002B4C
:010881000076
:010882000075
:010883000074
:010884000073
:010885000072
:010886000071
:010887000070
:01088800006F
:01088900006E
:01088A00006D
:01088B00006C
:01088C00006B
:01088D00006A
:01088E000069
:01088F000068
:010890000067
:010891000066
:010892000065
:010893003232
:010894000063
:010895000062
:010896000061
:010897000060
:01089800005F
:01089900005E
:01089A00005D
:01089B00005C
:01089C00005B
:01089D00005A
:01089E002B2E
:01089F000058
:0108A0000057
:0108A1000056
:0108A2000055
:0108A3000054
:0108A4000053
:0108A5000052
:0108A6000051
:0108A7000050
:0108A800004F
:0108A900004E
:0108AA00004D
:0108AB00004C
:0108AC00004B
:0108AD00004A
:0108AE000049
:0108AF000048
:0108B0000047
:0108B1003214
:0108B2000045
:0108B3000044
:0108B4000043
:0108B5000042
:0108B6000041
:0108B7000040
:0108B800003F
:0108B900003E
:0108BA00003D
:0108BB00003C
:0108BC002B10
:0108BD00003A
:0108BE000039
:0108BF000038
:0108C0000037
:0108C1000036
:0108C2000035
:0108C3000034
:0108C4000033
:0108C5000032
:0108C6000031
:0108C7000030
:0108C800002F
:0108C900002E
:0108CA00002D
:0108CB00002C
:0108CC00002B
:0108CD00002A
:0108CE000029
:0108CF0032F6
:0108D0000027
:0108D1000026
:0108D2000025
:0108D3000024
:0108D4000023
:0108D5000022
:0108D6000021
:0108D7000020
:0108D800001F
:0108D900001E
:0108DA002BF2
:0108DB00001C
:0108DC00001B
:0108DD00001A
:0108DE000019
:0108DF000018
:0108E0000017
:0108E1000016
:0108E2000015
:0108E3000014
:0108E4000013
:0108E5000012
:0108E6000011
:0108E7000010
:0108E800000F
:0108E900000E
:0108EA00000D
:0108EB00000C
:0108EC00000B
:0108ED0032D8
:0108EE000009
:0108EF000008
:0108F0000007
:0108F1000006
:0108F2000005
:0108F3000004
:0108F4000003
:0108F5000002
:0108F6000001
:0108F7000000
:0108F8002BD4
:0108F90000FE
:0108FA0000FD
:0108FB0000FC
:0108FC0000FB
:0108FD0000FA
:0108FE0000F9
:0108FF0000F8
:0109000000F6
:0109010000F5
:0109020000F4
:0109030000F3
:0109040000F2
:0109050000F1
:0109060000F0
:0109070000EF
:0109080000EE
:0109090000ED
:01090A0000EC
:01090B0000EB
:01090C0000EA
:01090D0000E9
:01090E0000E8
:01090F0000E7
:0109100000E6
:0109110000E5
:0109120000E4
:0109130000E3
:0109140000E2
:0109150000E1
:0109160000E0
:0109170000DF
:0109180000DE
:0109190000DD
:01091A0000DC
:01091B0000DB
:01091C0000DA
:01091D0000D9
:01091E0000D8
:01091F0000D7
:0109200000D6
:0109210000D5
:0109220000D4
:0109230000D3
:0109240000D2
:0109250000D1
:0109260000D0
:0109270000CF
:0109280000CE
:0109290000CD
:01092A0000CC
:01092B0000CB
:01092C0000CA
:01092D0000C9
:01092E0000C8
:01092F0000C7
:0109300000C6
:0109310000C5
:0109320000C4
:0109330000C3
:0109340000C2
:0109350000C1
:0109360000C0
:0109370000BF
:0109380000BE
:0109390000BD
:01093A0000BC
:01093B0000BB
:01093C0000BA
:01093D0000B9
:01093E0000B8
:01093F0000B7
:0109400000B6
:0109410000B5
:0109420000B4
:0109430000B3
:0109440000B2
:0109450000B1
:0109460000B0
:0109470000AF
:0109480000AE
:0109490000AD
:01094A0000AC
:01094B0000AB
:01094C0000AA
:01094D0000A9
:01094E0000A8
:01094F0000A7
:0109500000A6
:0109510000A5
:0109520000A4
:0109530000A3
:0109540000A2
:0109550000A1
:0109560000A0
:01095700009F
:01095800009E
:01095900009D
:01095A00009C
:01095B00009B
:01095C00009A
:01095D000099
:01095E000098
:01095F000097
:010960000096
:010961000095
:010962000094
:010963000093
:010964000092
:010965000091
:010966000090
:01096700008F
:01096800008E
:01096900008D
:01096A00008C
:01096B00008B
:01096C00008A
:01096D000089
:01096E000088
:01096F000087
:010970000086
:010971000085
:010972000084
:010973000083
:010974000082
:010975000081
:010976000080
:01097700007F
:01097800007E
:01097900007D
:01097A00007C
:01097B00007B
:01097C00007A
:01097D000079
:01097E000078
:01097F000077
:010980000076
:010981000075
:010982000074
:010983003241
:010984004032
:010985001B56
:010986001B55
:010987001B54
:010988001B53
:010989001B52
:01098A001B51
:01098B001B50
:01098C001B4F
:01098D003F2A
:01098E005612
:01098F000067
:010990000066
:010991000065
:010992000064
:010993000063
:010994000062
:010995000061
:010996000060
:01099700005F
:01099800005E
:01099900005D
:01099A00005C
:01099B00005B
:01099C00005A
:01099D000059
:01099E000058
:01099F000057
:0109A0000056
:0109A1003223
:0109A2000054
:0109A3000053
:0109A4000052
:0109A5000051
:0109A6000050
:0109A700004F
:0109A800004E
:0109A900004D
:0109AA00004C
:0109AB00004B
:0109AC003218
:0109AD000049
:0109AE000048
:0109AF000047
:0109B0000046
:0109B1000045
:0109B2000044
:0109B3000043
:0109B4000042
:0109B5000041
:0109B6000040
:0109B700003F
:0109B800003E
:0109B900003D
:0109BA00003C
:0109BB00003B
:0109BC00003A
:0109BD000039
:0109BE000038
:0109BF003205
:0109C0000036
:0109C1000035
:0109C2000034
:0109C3000033
:0109C4000032
:0109C5000031
:0109C6000030
:0109C700002F
:0109C800002E
:0109C900002D
:0109CA0032FA
:0109CB00002B
:0109CC00002A
:0109CD000029
:0109CE000028
:0109CF000027
:0109D0000026
:0109D1000025
:0109D2000024
:0109D3000023
:0109D4000022
:0109D5000021
:0109D6000020
:0109D700001F
:0109D800001E
:0109D900001D
:0109DA00001C
:0109DB00001B
:0109DC00001A
:0109DD0032E7
:0109DE000018
:0109DF000017
:0109E0000016
:0109E1000015
:0109E2000014
:0109E3000013
:0109E4000012
:0109E5000011
:0109E6000010
:0109E700000F
:0109E80032DC
:0109E900000D
:0109EA00000C
:0109EB00000B
:0109EC00000A
:0109ED000009
:0109EE000008
:0109EF000007
:0109F0000006
:0109F1000005
:0109F2000004
:0109F3000003
:0109F4000002
:0109F5000001
:0109F6000000
:0109F70000FF
:0109F80000FE
:0109F90000FD
:0109FA0000FC
:0109FB0032C9
:0109FC0000FA
:0109FD0000F9
:0109FE0000F8
:0109FF0000F7
:010A000000F5
:010A010000F4
:010A020000F3
:010A030000F2
:010A040000F1
:010A050000F0
:010A060032BD
:010A070000EE
:010A080000ED
:010A090000EC
:010A0A0000EB
:010A0B0000EA
:010A0C0000E9
:010A0D0000E8
:010A0E0000E7
:010A0F0000E6
:010A100000E5
:010A110000E4
:010A120000E3
:010A130000E2
:010A140000E1
:010A150000E0
:010A160000DF
:010A170000DE
:010A180000DD
:010A190032AA
:010A1A0000DB
:010A1B0000DA
:010A1C0000D9
:010A1D0000D8
:010A1E0000D7
:010A1F0000D6
:010A200000D5
:010A210000D4
:010A220000D3
:010A230000D2
:010A2400329F
:010A250000D0
:010A260000CF
:010A270000CE
:010A280000CD
:010A290000CC
:010A2A0000CB
:010A2B0000CA
:010A2C0000C9
:010A2D0000C8
:010A2E0000C7
:010A2F0000C6
:010A300000C5
:010A310000C4
:010A320000C3
:010A330000C2
:010A340000C1
:010A350000C0
:010A360000BF
:010A370000BE
:010A380000BD
:010A390000BC
:010A3A0000BB
:010A3B0000BA
:010A3C0000B9
:010A3D0000B8
:010A3E0000B7
:010A3F0000B6
:010A400000B5
:010A410000B4
:010A420000B3
:010A430000B2
:010A440000B1
:010A450000B0
:010A460000AF
:010A470000AE
:010A480000AD
:010A490000AC
:010A4A0000AB
:010A4B0000AA
:010A4C0000A9
:010A4D0000A8
:010A4E0000A7
:010A4F0000A6
:010A500000A5
:010A510000A4
:010A520000A3
:010A530000A2
:010A540000A1
:010A550000A0
:010A5600009F
:010A5700009E
:010A5800009D
:010A5900009C
:010A5A00009B
:010A5B00009A
:010A5C000099
:010A5D000098
:010A5E000097
:010A5F000096
:010A60000095
:010A61000094
:010A62000093
:010A63000092
:010A64000091
:010A65000090
:010A6600008F
:010A6700008E
:010A6800008D
:010A6900008C
:010A6A00008B
:010A6B00008A
:010A6C000089
:010A6D000088
:010A6E000087
:010A6F000086
:010A70000085
:010A71000084
:010A72000083
:010A73000082
:010A74000081
:010A75000080
:010A7600007F
:010A7700007E
:010A7800007D
:010A7900007C
:010A7A00007B
:010A7B00007A
:010A7C000079
:010A7D000078
:010A7E000077
:010A7F000076
:010A80000075
:010A81000074
:010A82000073
:010A83000072
:010A84000071
:010A85000070
:010A8600006F
:010A8700006E
:010A8800006D
:010A8900006C
:010A8A00006B
:010A8B00006A
:010A8C000069
:010A8D000068
:010A8E000067
:010A8F000066
:010A90000065
:010A91000064
:010A92000063
:010A93000062
:010A94000061
:010A95000060
:010A9600005F
:010A9700005E
:010A9800005D
:010A9900005C
:010A9A00005B
:010A9B00005A
:010A9C000059
:010A9D000058
:010A9E000057
:010A9F000056
:010AA0000055
:010AA1000054
:010AA2000053
:010AA3000052
:010AA4000051
:010AA5000050
:010AA600004F
:010AA700004E
:010AA800004D
:010AA900004C
:010AAA00004B
:010AAB00004A
:010AAC000049
:010AAD000048
:010AAE000047
:010AAF003214
:010AB0001B2A
:010AB1001B29
:010AB2001B28
:010AB3001B27
:010AB4001B26
:010AB5001B25
:010AB6001B24
:010AB7001B23
:010AB8001B22
:010AB9003FFD
:010ABA003209
:010ABB00003A
:010ABC000039
:010ABD000038
:010ABE000037
:010ABF000036
:010AC0000035
:010AC1000034
:010AC2000033
:010AC3000032
:010AC4000031
:010AC5000030
:010AC600002F
:010AC700002E
:010AC800002D
:010AC900002C
:010ACA00002B
:010ACB00002A
:010ACC000029
:010ACD0032F6
:010ACE000027
:010ACF000026
:010AD0000025
:010AD1000024
:010AD2000023
:010AD3000022
:010AD4000021
:010AD5000020
:010AD600001F
:010AD700001E
:010AD80032EB
:010AD900001C
:010ADA00001B
:010ADB00001A
:010ADC000019
:010ADD000018
:010ADE000017
:010ADF000016
:010AE0000015
:010AE1000014
:010AE2000013
:010AE3000012
:010AE4000011
:010AE5000010
:010AE600000F
:010AE700000E
:010AE800000D
:010AE900000C
:010AEA00000B
:010AEB0032D8
:010AEC000009
:010AED000008
:010AEE000007
:010AEF000006
:010AF0000005
:010AF1000004
:010AF2000003
:010AF3000002
:010AF4000001
:010AF5000000
:010AF60032CD
:010AF70000FE
:010AF80000FD
:010AF90000FC
:010AFA0000FB
:010AFB0000FA
:010AFC0000F9
:010AFD0000F8
:010AFE0000F7
:010AFF0000F6
:010B000000F4
:010B010000F3
:010B020000F2
:010B030000F1
:010B040000F0
:010B050000EF
:010B060000EE
:010B070000ED
:010B080000EC
:010B090032B9
:010B0A0000EA
:010B0B0000E9
:010B0C0000E8
:010B0D0000E7
:010B0E0000E6
:010B0F0000E5
:010B100000E4
:010B110000E3
:010B120000E2
:010B130000E1
:010B140032AE
:010B150000DF
:010B160000DE
:010B170000DD
:010B180000DC
:010B190000DB
:010B1A0000DA
:010B1B0000D9
:010B1C0000D8
:010B1D0000D7
:010B1E0000D6
:010B1F0000D5
:010B200000D4
:010B210000D3
:010B220000D2
:010B230000D1
:010B240000D0
:010B250000CF
:010B260000CE
:010B2700329B
:010B280000CC
:010B290000CB
:010B2A0000CA
:010B2B0000C9
:010B2C0000C8
:010B2D0000C7
:010B2E0000C6
:010B2F0000C5
:010B300000C4
:010B310000C3
:010B32003290
:010B330000C1
:010B340000C0
:010B350000BF
:010B360000BE
:010B370000BD
:010B380000BC
:010B390000BB
:010B3A0000BA
:010B3B0000B9
:010B3C0000B8
:010B3D0000B7
:010B3E0000B6
:010B3F0000B5
:010B400000B4
:010B410000B3
:010B420000B2
:010B430000B1
:010B440000B0
:010B4500327D
:010B460000AE
:010B470000AD
:010B480000AC
:010B490000AB
:010B4A0000AA
:010B4B0000A9
:010B4C0000A8
:010B4D0000A7
:010B4E0000A6
:010B4F0000A5
:010B50003272
:010B510000A3
:010B520000A2
:010B530000A1
:010B540000A0
:010B5500009F
:010B5600009E
:010B5700009D
:010B5800009C
:010B5900009B
:010B5A00009A
:010B5B000099
:010B5C000098
:010B5D000097
:010B5E000096
:010B5F000095
:010B60000094
:010B61000093
:010B62000092
:010B63000091
:010B64000090
:010B6500008F
:010B6600008E
:010B6700008D
:010B6800008C
:010B6900008B
:010B6A00008A
:010B6B000089
:010B6C000088
:010B6D000087
:010B6E000086
:010B6F000085
:010B70000084
:010B71000083
:010B72000082
:010B73000081
:010B74000080
:010B7500007F
:010B7600007E
:010B7700007D
:010B7800007C
:010B7900007B
:010B7A00007A
:010B7B000079
:010B7C000078
:010B7D000077
:010B7E000076
:010B7F000075
:010B80000074
:010B81000073
:010B82000072
:010B83000071
:010B84000070
:010B8500006F
:010B8600006E
:010B8700006D
:010B8800006C
:010B8900006B
:010B8A00006A
:010B8B000069
:010B8C000068
:010B8D000067
:010B8E000066
:010B8F000065
:010B90000064
:010B91000063
:010B92000062
:010B93000061
:010B94000060
:010B9500005F
:010B9600005E
:010B9700005D
:010B9800005C
:010B9900005B
:010B9A00005A
:010B9B000059
:010B9C000058
:010B9D000057
:010B9E000056
:010B9F000055
:010BA0000054
:010BA1000053
:010BA2000052
:010BA3000051
:010BA4000050
:010BA500004F
:010BA600004E
:010BA700004D
:010BA800004C
:010BA900004B
:010BAA00004A
:010BAB000049
:010BAC000048
:010BAD000047
:010BAE000046
:010BAF000045
:010BB0000044
:010BB1000043
:010BB2000042
:010BB3000041
:010BB4000040
:010BB500003F
:010BB600003E
:010BB700003D
:010BB800003C
:010BB900003B
:010BBA00003A
:010BBB000039
:010BBC000038
:010BBD000037
:010BBE000036
:010BBF000035
:010BC0000034
:010BC1000033
:010BC2000032
:010BC3000031
:010BC4000030
:010BC500002F
:010BC600002E
:010BC700002D
:010BC800002C
:010BC900002B
:010BCA00002A
:010BCB000029
:010BCC000028
:010BCD000027
:010BCE000026
:010BCF000025
:010BD0000024
:010BD1000023
:010BD2000022
:010BD3000021
:010BD4000020
:010BD500001F
:010BD600001E
:010BD700001D
:010BD800001C
:010BD900001B
:010BDA00001A
:010BDB0032E7
:010BDC0040D8
:010BDD0040D7
:010BDE0040D6
:010BDF003FD6
:010BE00040D4
:010BE10040D3
:010BE20040D2
:010BE30040D1
:010BE4003FD1
:010BE50040CF
:010BE60056B8
:010BE700000D
:010BE800000C
:010BE900000B
:010BEA00000A
:010BEB000009
:010BEC000008
:010BED000007
:010BEE000006
:010BEF000005
:010BF0000004
:010BF1000003
:010BF2000002
:010BF3000001
:010BF4000000
:010BF50000FF
:010BF60000FE
:010BF70000FD
:010BF80000FC
:010BF90032C9
:010BFA0000FA
:010BFB0000F9
:010BFC0000F8
:010BFD0000F7
:010BFE0000F6
:010BFF0000F5
:010C000000F3
:010C010000F2
:010C020000F1
:010C030000F0
:010C04005699
:010C050000EE
:010C060000ED
:010C070000EC
:010C080000EB
:010C090000EA
:010C0A0000E9
:010C0B0000E8
:010C0C0000E7
:010C0D0000E6
:010C0E0000E5
:010C0F0000E4
:010C100000E3
:010C110000E2
:010C120000E1
:010C130000E0
:010C140000DF
:010C150000DE
:010C160000DD
:010C170032AA
:010C180000DB
:010C190000DA
:010C1A0000D9
:010C1B0000D8
:010C1C0000D7
:010C1D0000D6
:010C1E0000D5
:010C1F0000D4
:010C200000D3
:010C210000D2
:010C2200567B
:010C230000D0
:010C240000CF
:010C250000CE
:010C260000CD
:010C270000CC
:010C280000CB
:010C290000CA
:010C2A0000C9
:010C2B0000C8
:010C2C0000C7
:010C2D0000C6
:010C2E0000C5
:010C2F0000C4
:010C300000C3
:010C310000C2
:010C320000C1
:010C330000C0
:010C340000BF
:010C3500328C
:010C360000BD
:010C370000BC
:010C380000BB
:010C390000BA
:010C3A0000B9
:010C3B0000B8
:010C3C0000B7
:010C3D0000B6
:010C3E0000B5
:010C3F0000B4
:010C4000565D
:010C410000B2
:010C420000B1
:010C430000B0
:010C440000AF
:010C450000AE
:010C460000AD
:010C470000AC
:010C480000AB
:010C490000AA
:010C4A0000A9
:010C4B0000A8
:010C4C0000A7
:010C4D0000A6
:010C4E0000A5
:010C4F0000A4
:010C500000A3
:010C510000A2
:010C520000A1
:010C5300326E
:010C5400009F
:010C5500009E
:010C5600009D
:010C5700009C
:010C5800009B
:010C5900009A
:010C5A000099
:010C5B000098
:010C5C000097
:010C5D000096
:010C5E00563F
:010C5F000094
:010C60000093
:010C61000092
:010C62000091
:010C63000090
:010C6400008F
:010C6500008E
:010C6600008D
:010C6700008C
:010C6800008B
:010C6900008A
:010C6A000089
:010C6B000088
:010C6C000087
:010C6D000086
:010C6E000085
:010C6F000084
:010C70000083
:010C71003250
:010C72000081
:010C73000080
:010C7400007F
:010C7500007E
:010C7600007D
:010C7700007C
:010C7800007B
:010C7900007A
:010C7A000079
:010C7B000078
:010C7C005621
:010C7D000076
:010C7E000075
:010C7F000074
:010C80000073
:010C81000072
:010C82000071
:010C83000070
:010C8400006F
:010C8500006E
:010C8600006D
:010C8700006C
:010C8800006B
:010C8900006A
:010C8A000069
:010C8B000068
:010C8C000067
:010C8D000066
:010C8E000065
:010C8F000064
:010C90000063
:010C91000062
:010C92000061
:010C93000060
:010C9400005F
:010C9500005E
:010C9600005D
:010C9700005C
:010C9800005B
:010C9900005A
:010C9A000059
:010C9B000058
:010C9C000057
:010C9D000056
:010C9E000055
:010C9F000054
:010CA0000053
:010CA1000052
:010CA2000051
:010CA3000050
:010CA400004F
:010CA500004E
:010CA600004D
:010CA700004C
:010CA800004B
:010CA900004A
:010CAA000049
:010CAB000048
:010CAC000047
:010CAD000046
:010CAE000045
:010CAF000044
:010CB0000043
:010CB1000042
:010CB2000041
:010CB3000040
:010CB400003F
:010CB500003E
:010CB600003D
:010CB700003C
:010CB800003B
:010CB900003A
:010CBA000039
:010CBB000038
:010CBC000037
:010CBD000036
:010CBE000035
:010CBF000034
:010CC0000033
:010CC1000032
:010CC2000031
:010CC3000030
:010CC400002F
:010CC500002E
:010CC600002D
:010CC700002C
:010CC800002B
:010CC900002A
:010CCA000029
:010CCB000028
:010CCC000027
:010CCD000026
:010CCE000025
:010CCF000024
:010CD0000023
:010CD1000022
:010CD2000021
:010CD3000020
:010CD400001F
:010CD500001E
:010CD600001D
:010CD700001C
:010CD800001B
:010CD900001A
:010CDA000019
:010CDB000018
:010CDC000017
:010CDD000016
:010CDE000015
:010CDF000014
:010CE0000013
:010CE1000012
:010CE2000011
:010CE3000010
:010CE400000F
:010CE500000E
:010CE600000D
:010CE700000C
:010CE800000B
:010CE900000A
:010CEA000009
:010CEB000008
:010CEC000007
:010CED000006
:010CEE000005
:010CEF000004
:010CF0000003
:010CF1000002
:010CF2000001
:010CF3000000
:010CF40000FF
:010CF50000FE
:010CF60000FD
:010CF70000FC
:010CF80000FB
:010CF90000FA
:010CFA0000F9
:010CFB0000F8
:010CFC0000F7
:010CFD0000F6
:010CFE0000F5
:010CFF0000F4
:010D000000F2
:010D010000F1
:010D020000F0
:010D030000EF
:010D040000EE
:010D050000ED
:010D060000EC
:010D070032B9
:010D08006486
:010D09006485
:010D0A006484
:010D0B006483
:010D0C006482
:010D0D006481
:010D0E006480
:010D0F00647F
:010D1000647E
:010D1100647D
:010D1200568A
:010D130000DF
:010D140000DE
:010D150000DD
:010D160000DC
:010D170000DB
:010D180000DA
:010D190000D9
:010D1A0000D8
:010D1B0000D7
:010D1C0000D6
:010D1D0000D5
:010D1E0000D4
:010D1F0000D3
:010D200000D2
:010D210000D1
:010D220000D0
:010D230000CF
:010D240000CE
:010D25005677
:010D26006468
:010D27006467
:010D28006466
:010D29006465
:010D2A006464
:010D2B006463
:010D2C005E68
:010D2D005E67
:010D2E00398B
:010D2F00645F
:010D3000566C
:010D310000C1
:010D320000C0
:010D330000BF
:010D340000BE
:010D350000BD
:010D360000BC
:010D370000BB
:010D380000BA
:010D390000B9
:010D3A0000B8
:010D3B0000B7
:010D3C0000B6
:010D3D0000B5
:010D3E0000B4
:010D3F0000B3
:010D400000B2
:010D410000B1
:010D420000B0
:010D43005659
:010D4400644A
:010D45006449
:010D46005E4E
:010D47005D4E
:010D48005D4D
:010D49006445
:010D4A005E4A
:010D4B005E49
:010D4C00396D
:010D4D006441
:010D4E00564E
:010D4F0000A3
:010D500000A2
:010D510000A1
:010D520000A0
:010D5300009F
:010D5400009E
:010D5500009D
:010D5600009C
:010D5700009B
:010D5800009A
:010D59000099
:010D5A000098
:010D5B000097
:010D5C000096
:010D5D000095
:010D5E000094
:010D5F000093
:010D60000092
:010D6100563B
:010D6200642C
:010D6300642B
:010D64005E30
:010D65005D30
:010D66005D2F
:010D67006427
:010D68005E2C
:010D69005E2B
:010D6A00394F
:010D6B006423
:010D6C005630
:010D6D000085
:010D6E000084
:010D6F000083
:010D70000082
:010D71000081
:010D72000080
:010D7300007F
:010D7400007E
:010D7500007D
:010D7600007C
:010D7700007B
:010D7800007A
:010D79000079
:010D7A000078
:010D7B000077
:010D7C000076
:010D7D000075
:010D7E000074
:010D7F00561D
:010D8000640E
:010D8100640D
:010D82005E12
:010D83005D12
:010D84005D11
:010D85006409
:010D86005E0E
:010D87005E0D
:010D88003931
:010D89006405
:010D8A005612
:010D8B000067
:010D8C000066
:010D8D000065
:010D8E000064
:010D8F000063
:010D90000062
:010D91000061
:010D92000060
:010D9300005F
:010D9400005E
:010D9500005D
:010D9600005C
:010D9700005B
:010D9800005A
:010D99000059
:010D9A000058
:010D9B000057
:010D9C000056
:010D9D0056FF
:010D9E0064F0
:010D9F0064EF
:010DA0005EF4
:010DA1005DF4
:010DA2005DF3
:010DA30064EB
:010DA4005EF0
:010DA5005EEF
:010DA6003913
:010DA70064E7
:010DA80056F4
:010DA9000049
:010DAA000048
:010DAB000047
:010DAC000046
:010DAD000045
:010DAE000044
:010DAF000043
:010DB0000042
:010DB1000041
:010DB2000040
:010DB300003F
:010DB400003E
:010DB500003D
:010DB600003C
:010DB700003B
:010DB800003A
:010DB9000039
:010DBA000038
:010DBB000037
:010DBC000036
:010DBD000035
:010DBE000034
:010DBF000033
:010DC0000032
:010DC1000031
:010DC2000030
:010DC300002F
:010DC400002E
:010DC500002D
:010DC600002C
:010DC700002B
:010DC800002A
:010DC9000029
:010DCA000028
:010DCB000027
:010DCC000026
:010DCD000025
:010DCE000024
:010DCF000023
:010DD0000022
:010DD1000021
:010DD2000020
:010DD300001F
:010DD400001E
:010DD500001D
:010DD600001C
:010DD700001B
:010DD800001A
:010DD9000019
:010DDA000018
:010DDB000017
:010DDC000016
:010DDD000015
:010DDE000014
:010DDF000013
:010DE0000012
:010DE1000011
:010DE2000010
:010DE300000F
:010DE400000E
:010DE500000D
:010DE600000C
:010DE700000B
:010DE800000A
:010DE9000009
:010DEA000008
:010DEB000007
:010DEC000006
:010DED000005
:010DEE000004
:010DEF000003
:010DF0000002
:010DF1000001
:010DF2000000
:010DF30000FF
:010DF40000FE
:010DF50000FD
:010DF60000FC
:010DF70000FB
:010DF80000FA
:010DF90000F9
:010DFA0000F8
:010DFB0000F7
:010DFC0000F6
:010DFD0000F5
:010DFE0000F4
:010DFF0000F3
:010E000000F1
:010E010000F0
:010E020000EF
:010E030000EE
:010E040000ED
:010E050000EC
:010E060000EB
:010E070000EA
:010E080000E9
:010E090000E8
:010E0A0000E7
:010E0B0000E6
:010E0C0000E5
:010E0D0000E4
:010E0E0000E3
:010E0F0000E2
:010E100000E1
:010E110000E0
:010E120000DF
:010E130000DE
:010E140000DD
:010E150000DC
:010E160000DB
:010E170000DA
:010E180000D9
:010E190000D8
:010E1A0000D7
:010E1B0000D6
:010E1C0000D5
:010E1D0000D4
:010E1E0000D3
:010E1F0000D2
:010E200000D1
:010E210000D0
:010E220000CF
:010E230000CE
:010E240000CD
:010E250000CC
:010E260000CB
:010E270000CA
:010E280000C9
:010E290000C8
:010E2A0000C7
:010E2B0000C6
:010E2C0000C5
:010E2D0000C4
:010E2E0000C3
:010E2F0000C2
:010E300000C1
:010E310000C0
:010E320000BF
:010E3300328C
:010E3400407D
:010E3500407C
:010E36001BA0
:010E37001B9F
:010E38001B9E
:010E39001B9D
:010E3A003F78
:010E3B001B9B
:010E3C001B9A
:010E3D003F75
:010E3E00565D
:010E3F0000B2
:010E400000B1
:010E410000B0
:010E420000AF
:010E430000AE
:010E440000AD
:010E450000AC
:010E460000AB
:010E470000AA
:010E480000A9
:010E490000A8
:010E4A0000A7
:010E4B0000A6
:010E4C0000A5
:010E4D0000A4
:010E4E0000A3
:010E4F0000A2
:010E500000A1
:010E5100326E
:010E5200405F
:010E5300405E
:010E54003F5E
:010E55001B81
:010E56001B80
:010E57001B7F
:010E58003F5A
:010E59001B7D
:010E5A001B7C
:010E5B003F57
:010E5C00563F
:010E5D000094
:010E5E000093
:010E5F000092
:010E60000091
:010E61000090
:010E6200008F
:010E6300008E
:010E6400008D
:010E6500008C
:010E6600008B
:010E6700008A
:010E68000089
:010E69000088
:010E6A000087
:010E6B000086
:010E6C000085
:010E6D000084
:010E6E000083
:010E6F003250
:010E70000081
:010E71000080
:010E7200007F
:010E7300007E
:010E7400007D
:010E7500007C
:010E7600007B
:010E7700007A
:010E78000079
:010E79000078
:010E7A005621
:010E7B000076
:010E7C000075
:010E7D000074
:010E7E000073
:010E7F000072
:010E80000071
:010E81000070
:010E8200006F
:010E8300006E
:010E8400006D
:010E8500006C
:010E8600006B
:010E8700006A
:010E88000069
:010E89000068
:010E8A000067
:010E8B000066
:010E8C000065
:010E8D003232
:010E8E000063
:010E8F000062
:010E90000061
:010E91000060
:010E9200005F
:010E9300005E
:010E9400005D
:010E9500005C
:010E9600005B
:010E9700005A
:010E98005603
:010E99000058
:010E9A000057
:010E9B000056
:010E9C000055
:010E9D000054
:010E9E000053
:010E9F000052
:010EA0000051
:010EA1000050
:010EA200004F
:010EA300004E
:010EA400004D
:010EA500004C
:010EA600004B
:010EA700004A
:010EA8000049
:010EA9000048
:010EAA000047
:010EAB003214
:010EAC000045
:010EAD000044
:010EAE000043
:010EAF000042
:010EB0000041
:010EB1000040
:010EB200003F
:010EB300003E
:010EB400003D
:010EB500003C
:010EB60056E5
:010EB700003A
:010EB8000039
:010EB9000038
:010EBA000037
:010EBB000036
:010EBC000035
:010EBD000034
:010EBE000033
:010EBF000032
:010EC0000031
:010EC1000030
:010EC200002F
:010EC300002E
:010EC400002D
:010EC500002C
:010EC600002B
:010EC700002A
:010EC8000029
:010EC90032F6
:010ECA000027
:010ECB000026
:010ECC000025
:010ECD000024
:010ECE000023
:010ECF000022
:010ED0000021
:010ED1000020
:010ED200001F
:010ED300001E
:010ED40056C7
:010ED500001C
:010ED600001B
:010ED700001A
:010ED8000019
:010ED9000018
:010EDA000017
:010EDB000016
:010EDC000015
:010EDD000014
:010EDE000013
:010EDF000012
:010EE0000011
:010EE1000010
:010EE200000F
:010EE300000E
:010EE400000D
:010EE500000C
:010EE600000B
:010EE700000A
:010EE8000009
:010EE9000008
:010EEA000007
:010EEB000006
:010EEC000005
:010EED000004
:010EEE000003
:010EEF000002
:010EF0000001
:010EF1000000
:010EF20000FF
:010EF30000FE
:010EF40000FD
:010EF50000FC
:010EF60000FB
:010EF70000FA
:010EF80000F9
:010EF90000F8
:010EFA0000F7
:010EFB0000F6
:010EFC0000F5
:010EFD0000F4
:010EFE0000F3
:010EFF0000F2
:010F000000F0
:010F010000EF
:010F020000EE
:010F030000ED
:010F040000EC
:010F050000EB
:010F060000EA
:010F070000E9
:010F080000E8
:010F090000E7
:010F0A0000E6
:010F0B0000E5
:010F0C0000E4
:010F0D0000E3
:010F0E0000E2
:010F0F0000E1
:010F100000E0
:010F110000DF
:010F120000DE
:010F130000DD
:010F140000DC
:010F150000DB
:010F160000DA
:010F170000D9
:010F180000D8
:010F190000D7
:010F1A0000D6
:010F1B0000D5
:010F1C0000D4
:010F1D0000D3
:010F1E0000D2
:010F1F0000D1
:010F200000D0
:010F210000CF
:010F220000CE
:010F230000CD
:010F240000CC
:010F250000CB
:010F260000CA
:010F270000C9
:010F280000C8
:010F290000C7
:010F2A0000C6
:010F2B0000C5
:010F2C0000C4
:010F2D0000C3
:010F2E0000C2
:010F2F0000C1
:010F300000C0
:010F310000BF
:010F320000BE
:010F330000BD
:010F340000BC
:010F350000BB
:010F360000BA
:010F370000B9
:010F380000B8
:010F390000B7
:010F3A0000B6
:010F3B0000B5
:010F3C0000B4
:010F3D0000B3
:010F3E0000B2
:010F3F0000B1
:010F400000B0
:010F410000AF
:010F420000AE
:010F430000AD
:010F440000AC
:010F450000AB
:010F460000AA
:010F470000A9
:010F480000A8
:010F490000A7
:010F4A0000A6
:010F4B0000A5
:010F4C0000A4
:010F4D0000A3
:010F4E0000A2
:010F4F0000A1
:010F500000A0
:010F5100009F
:010F5200009E
:010F5300009D
:010F5400009C
:010F5500009B
:010F5600009A
:010F57000099
:010F58000098
:010F59000097
:010F5A000096
:010F5B000095
:010F5C000094
:010F5D000093
:010F5E000092
:010F5F00325F
:010F60003F51
:010F61001B74
:010F62001B73
:010F63001B72
:010F64001B71
:010F65001B70
:010F66003F4B
:010F67001B6E
:010F68001B6D
:010F69003F48
:010F6A005630
:010F6B000085
:010F6C000084
:010F6D000083
:010F6E000082
:010F6F000081
:010F70000080
:010F7100007F
:010F7200007E
:010F7300007D
:010F7400007C
:010F7500007B
:010F7600007A
:010F77000079
:010F78000078
:010F79000077
:010F7A000076
:010F7B000075
:010F7C000074
:010F7D003241
:010F7E003F33
:010F7F001B56
:010F80001B55
:010F81001B54
:010F82001B53
:010F83001B52
:010F84003F2D
:010F85001B50
:010F86001B4F
:010F87003F2A
:010F88005612
:010F89000067
:010F8A000066
:010F8B000065
:010F8C000064
:010F8D000063
:010F8E000062
:010F8F000061
:010F90000060
:010F9100005F
:010F9200005E
:010F9300005D
:010F9400005C
:010F9500005B
:010F9600005A
:010F97000059
:010F98000058
:010F99000057
:010F9A000056
:010F9B003223
:010F9C000054
:010F9D000053
:010F9E000052
:010F9F000051
:010FA0000050
:010FA100004F
:010FA200004E
:010FA300004D
:010FA400004C
:010FA500004B
:010FA60056F4
:010FA7000049
:010FA8000048
:010FA9000047
:010FAA000046
:010FAB000045
:010FAC000044
:010FAD000043
:010FAE000042
:010FAF000041
:010FB0000040
:010FB100003F
:010FB200003E
:010FB300003D
:010FB400003C
:010FB500003B
:010FB600003A
:010FB7000039
:010FB8000038
:010FB9003205
:010FBA000036
:010FBB000035
:010FBC000034
:010FBD000033
:010FBE000032
:010FBF000031
:010FC0000030
:010FC100002F
:010FC200002E
:010FC300002D
:010FC40056D6
:010FC500002B
:010FC600002A
:010FC7000029
:010FC8000028
:010FC9000027
:010FCA000026
:010FCB000025
:010FCC000024
:010FCD000023
:010FCE000022
:010FCF000021
:010FD0000020
:010FD100001F
:010FD200001E
:010FD300001D
:010FD400001C
:010FD500001B
:010FD600001A
:010FD70032E7
:010FD8000018
:010FD9000017
:010FDA000016
:010FDB000015
:010FDC000014
:010FDD000013
:010FDE000012
:010FDF000011
:010FE0000010
:010FE100000F
:010FE20056B8
:010FE300000D
:010FE400000C
:010FE500000B
:010FE600000A
:010FE7000009
:010FE8000008
:010FE9000007
:010FEA000006
:010FEB000005
:010FEC000004
:010FED000003
:010FEE000002
:010FEF000001
:010FF0000000
:010FF10000FF
:010FF20000FE
:010FF30000FD
:010FF40000FC
:010FF50032C9
:010FF60000FA
:010FF70000F9
:010FF80000F8
:010FF90000F7
:010FFA0000F6
:010FFB0000F5
:010FFC0000F4
:010FFD0000F3
:010FFE0000F2
:010FFF0000F1
:011000005699
:0110010000EE
:0110020000ED
:0110030000EC
:0110040000EB
:0110050000EA
:0110060000E9
:0110070000E8
:0110080000E7
:0110090000E6
:01100A0000E5
:01100B0000E4
:01100C0000E3
:01100D0000E2
:01100E0000E1
:01100F0000E0
:0110100000DF
:0110110000DE
:0110120000DD
:0110130000DC
:0110140000DB
:0110150000DA
:0110160000D9
:0110170000D8
:0110180000D7
:0110190000D6
:01101A0000D5
:01101B0000D4
:01101C0000D3
:01101D0000D2
:01101E0000D1
:01101F0000D0
:0110200000CF
:0110210000CE
:0110220000CD
:0110230000CC
:0110240000CB
:0110250000CA
:0110260000C9
:0110270000C8
:0110280000C7
:0110290000C6
:01102A0000C5
:01102B0000C4
:01102C0000C3
:01102D0000C2
:01102E0000C1
:01102F0000C0
:0110300000BF
:0110310000BE
:0110320000BD
:0110330000BC
:0110340000BB
:0110350000BA
:0110360000B9
:0110370000B8
:0110380000B7
:0110390000B6
:01103A0000B5
:01103B0000B4
:01103C0000B3
:01103D0000B2
:01103E0000B1
:01103F0000B0
:0110400000AF
:0110410000AE
:0110420000AD
:0110430000AC
:0110440000AB
:0110450000AA
:0110460000A9
:0110470000A8
:0110480000A7
:0110490000A6
:01104A0000A5
:01104B0000A4
:01104C0000A3
:01104D0000A2
:01104E0000A1
:01104F0000A0
:01105000009F
:01105100009E
:01105200009D
:01105300009C
:01105400009B
:01105500009A
:011056000099
:011057000098
:011058000097
:011059000096
:01105A000095
:01105B000094
:01105C000093
:01105D000092
:01105E000091
:01105F000090
:01106000008F
:01106100008E
:01106200008D
:01106300008C
:01106400008B
:01106500008A
:011066000089
:011067000088
:011068000087
:011069000086
:01106A000085
:01106B000084
:01106C000083
:01106D000082
:01106E000081
:01106F000080
:01107000007F
:01107100007E
:01107200007D
:01107300007C
:01107400007B
:01107500007A
:011076000079
:011077000078
:011078000077
:011079000076
:01107A000075
:01107B000074
:01107C000073
:01107D000072
:01107E000071
:01107F000070
:01108000006F
:01108100006E
:01108200006D
:01108300006C
:01108400006B
:01108500006A
:011086000069
:011087000068
:011088000067
:011089000066
:01108A000065
:01108B003232
:01108C004023
:01108D001B47
:01108E001B46
:01108F001B45
:011090001B44
:011091001B43
:011092001B42
:011093001B41
:011094001B40
:011095003F1B
:011096005603
:011097000058
:011098000057
:011099000056
:01109A000055
:01109B000054
:01109C000053
:01109D000052
:01109E000051
:01109F000050
:0110A000004F
:0110A100004E
:0110A200004D
:0110A300004C
:0110A400004B
:0110A500004A
:0110A6000049
:0110A7000048
:0110A8000047
:0110A9003214
:0110AA001B2A
:0110AB001B29
:0110AC001B28
:0110AD001B27
:0110AE001B26
:0110AF001B25
:0110B0001B24
:0110B1001B23
:0110B2001B22
:0110B30040FC
:0110B40056E5
:0110B500003A
:0110B6000039
:0110B7000038
:0110B8000037
:0110B9000036
:0110BA000035
:0110BB000034
:0110BC000033
:0110BD000032
:0110BE000031
:0110BF000030
:0110C000002F
:0110C100002E
:0110C200002D
:0110C300002C
:0110C400002B
:0110C500002A
:0110C6000029
:0110C70032F6
:0110C8000027
:0110C9000026
:0110CA000025
:0110CB000024
:0110CC000023
:0110CD000022
:0110CE000021
:0110CF000020
:0110D000001F
:0110D100001E
:0110D20056C7
:0110D300001C
:0110D400001B
:0110D500001A
:0110D6000019
:0110D7000018
:0110D8000017
:0110D9000016
:0110DA000015
:0110DB000014
:0110DC000013
:0110DD000012
:0110DE000011
:0110DF000010
:0110E000000F
:0110E100000E
:0110E200000D
:0110E300000C
:0110E400000B
:0110E50032D8
:0110E6000009
:0110E7000008
:0110E8000007
:0110E9000006
:0110EA000005
:0110EB000004
:0110EC000003
:0110ED000002
:0110EE000001
:0110EF000000
:0110F00056A9
:0110F10000FE
:0110F20000FD
:0110F30000FC
:0110F40000FB
:0110F50000FA
:0110F60000F9
:0110F70000F8
:0110F80000F7
:0110F90000F6
:0110FA0000F5
:0110FB0000F4
:0110FC0000F3
:0110FD0000F2
:0110FE0000F1
:0110FF0000F0
:0111000000EE
:0111010000ED
:0111020000EC
:0111030032B9
:0111040000EA
:0111050000E9
:0111060000E8
:0111070000E7
:0111080000E6
:0111090000E5
:01110A0000E4
:01110B0000E3
:01110C0000E2
:01110D0000E1
:01110E00568A
:01110F0000DF
:0111100000DE
:0111110000DD
:0111120000DC
:0111130000DB
:0111140000DA
:0111150000D9
:0111160000D8
:0111170000D7
:0111180000D6
:0111190000D5
:01111A0000D4
:01111B0000D3
:01111C0000D2
:01111D0000D1
:01111E0000D0
:01111F0000CF
:0111200000CE
:01112100329B
:0111220000CC
:0111230000CB
:0111240000CA
:0111250000C9
:0111260000C8
:0111270000C7
:0111280000C6
:0111290000C5
:01112A0000C4
:01112B0000C3
:01112C00566C
:01112D0000C1
:01112E0000C0
:01112F0000BF
:0111300000BE
:0111310000BD
:0111320000BC
:0111330000BB
:0111340000BA
:0111350000B9
:0111360000B8
:0111370000B7
:0111380000B6
:0111390000B5
:01113A0000B4
:01113B0000B3
:01113C0000B2
:01113D0000B1
:01113E0000B0
:01113F0000AF
:0111400000AE
:0111410000AD
:0111420000AC
:0111430000AB
:0111440000AA
:0111450000A9
:0111460000A8
:0111470000A7
:0111480000A6
:0111490000A5
:01114A0000A4
:01114B0000A3
:01114C0000A2
:01114D0000A1
:01114E0000A0
:01114F00009F
:01115000009E
:01115100009D
:01115200009C
:01115300009B
:01115400009A
:011155000099
:011156000098
:011157000097
:011158000096
:011159000095
:01115A000094
:01115B000093
:01115C000092
:01115D000091
:01115E000090
:01115F00008F
:01116000008E
:01116100008D
:01116200008C
:01116300008B
:01116400008A
:011165000089
:011166000088
:011167000087
:011168000086
:011169000085
:01116A000084
:01116B000083
:01116C000082
:01116D000081
:01116E000080
:01116F00007F
:01117000007E
:01117100007D
:01117200007C
:01117300007B
:01117400007A
:011175000079
:011176000078
:011177000077
:011178000076
:011179000075
:01117A000074
:01117B000073
:01117C000072
:01117D000071
:01117E000070
:01117F00006F
:01118000006E
:01118100006D
:01118200006C
:01118300006B
:01118400006A
:011185000069
:011186000068
:011187000067
:011188000066
:011189000065
:01118A000064
:01118B000063
:01118C000062
:01118D000061
:01118E000060
:01118F00005F
:01119000005E
:01119100005D
:01119200005C
:01119300005B
:01119400005A
:011195000059
:011196000058
:011197000057
:011198000056
:011199000055
:01119A000054
:01119B000053
:01119C000052
:01119D000051
:01119E000050
:01119F00004F
:0111A000004E
:0111A100004D
:0111A200004C
:0111A300004B
:0111A400004A
:0111A5000049
:0111A6000048
:0111A7000047
:0111A8000046
:0111A9000045
:0111AA000044
:0111AB000043
:0111AC000042
:0111AD000041
:0111AE000040
:0111AF00003F
:0111B000003E
:0111B100003D
:0111B200003C
:0111B300003B
:0111B400003A
:0111B5000039
:0111B6000038
:0111B7003205
:0111B8001C1A
:0111B9001B1A
:0111BA001B19
:0111BB001B18
:0111BC001B17
:0111BD001B16
:0111BE001B15
:0111BF001B14
:0111C0001B13
:0111C1003FEE
:0111C20056D6
:0111C300002B
:0111C400002A
:0111C5000029
:0111C6000028
:0111C7000027
:0111C8000026
:0111C9000025
:0111CA000024
:0111CB000023
:0111CC000022
:0111CD000021
:0111CE000020
:0111CF00001F
:0111D000001E
:0111D100001D
:0111D200001C
:0111D300001B
:0111D400001A
:0111D50032E7
:0111D6001CFC
:0111D7001BFC
:0111D8001BFB
:0111D9001BFA
:0111DA001BF9
